:100000000C942A000C9449000C9447000C9447006F
:100010000C9447000C9447000C9447000C94470044
:100020000C9447000C9447000C9447000C94470034
:100030000C9447000C9447000C9447000C94470024
:100040000C9447000C9447000C9447000C94470014
:100050000C94470011241FBECFE5D8E0DEBFCDBF12
:1000600010E0A0E6B0E0E6E3F2E002C005900D92F9
:10007000AA36B107D9F710E0AAE6B0E001C01D9298
:10008000A037B107E1F70E94EF000C9419010C941E
:1000900000001F920F920FB60F9211242F938F938F
:1000A0009F9380916A0090916B00019690936B00F2
:1000B00080936A0080916A0090916B008051974212
:1000C00020F010926B0010926A009F918F912F91F7
:1000D0000F900FBE0F901F9018958FEF87BB84B3C2
:1000E0008F6084BB8A98089585B7836085BF8BB77E
:1000F00080648BBF08959C0168EE73E00E94050147
:1001000060936C00C90168EE73E00E94050164E62B
:1001100070E00E94050160936D00C90164E670E023
:100120000E9405016AE070E00E94050160936E0084
:10013000C9016AE070E00E94050180936F00089594
:10014000DF93CF93CDB7DEB72A970FB6F894DEBF13
:100150000FBECDBFDE011196E0E6F0E08AE001902F
:100160000D928150E1F780916C00DE011196FD0146
:10017000E80FF11D808188BBA89A20ED37E0C90106
:100180000197F1F7A89880916D00FD01E80FF11D2E
:10019000808188BBA99AC9010197F1F7A99880913C
:1001A0006E00FD01E80FF11D808188BBAA9AC9018C
:1001B0000197F1F7AA9880916F00A80FB11D8C915B
:1001C00088BBAB9AC9010197F1F7AB982A960FB695
:1001D000F894DEBF0FBECDBFCF91DF9108958FEFB2
:1001E00087BB84B38F6084BB8A9885B7836085BFE3
:1001F0008BB780648BBF789480916A0090916B007C
:100200000E947B000E94A000F7CFAA1BBB1B51E1FC
:1002100007C0AA1FBB1FA617B70710F0A61BB70B76
:10022000881F991F5A95A9F780959095BC01CD011B
:060230000895F894FFCFD1
:0A0236003F065B4F666D7D077F6F8A
:00000001FF
